{
  "contractName": "Logistics",
  "abi": [
    {
      "anonymous": false,
      "inputs": [
        {
          "indexed": true,
          "name": "shipmentID",
          "type": "string"
        },
        {
          "indexed": false,
          "name": "sellerID",
          "type": "string"
        },
        {
          "indexed": false,
          "name": "buyerID",
          "type": "string"
        },
        {
          "indexed": false,
          "name": "shipperID",
          "type": "string"
        },
        {
          "indexed": false,
          "name": "shipmentStatus",
          "type": "uint256"
        },
        {
          "indexed": false,
          "name": "temperatureStatus",
          "type": "uint256"
        }
      ],
      "name": "createShipmentevent",
      "type": "event"
    },
    {
      "anonymous": false,
      "inputs": [
        {
          "indexed": true,
          "name": "shipmentID",
          "type": "string"
        },
        {
          "indexed": false,
          "name": "sellerID",
          "type": "string"
        },
        {
          "indexed": false,
          "name": "buyerID",
          "type": "string"
        },
        {
          "indexed": false,
          "name": "shipperID",
          "type": "string"
        },
        {
          "indexed": false,
          "name": "shipmentStatus",
          "type": "uint256"
        },
        {
          "indexed": false,
          "name": "temperatureStatus",
          "type": "uint256"
        }
      ],
      "name": "shipmentUpdateEvent",
      "type": "event"
    },
    {
      "anonymous": false,
      "inputs": [
        {
          "indexed": true,
          "name": "shipmentID",
          "type": "string"
        },
        {
          "indexed": false,
          "name": "breachedTxt",
          "type": "string"
        }
      ],
      "name": "temperatureBreachedEvent",
      "type": "event"
    },
    {
      "anonymous": false,
      "inputs": [
        {
          "indexed": true,
          "name": "shipmentID",
          "type": "string"
        },
        {
          "indexed": false,
          "name": "sellerID",
          "type": "string"
        },
        {
          "indexed": false,
          "name": "buyerID",
          "type": "string"
        },
        {
          "indexed": false,
          "name": "shipperID",
          "type": "string"
        },
        {
          "indexed": false,
          "name": "shipmentStatus",
          "type": "uint256"
        },
        {
          "indexed": false,
          "name": "temperatureStatus",
          "type": "uint256"
        },
        {
          "indexed": false,
          "name": "temperatureBreached",
          "type": "bool"
        }
      ],
      "name": "getShipmentEvent",
      "type": "event"
    },
    {
      "constant": false,
      "inputs": [
        {
          "name": "_shipmentID",
          "type": "string"
        },
        {
          "name": "_sellerID",
          "type": "string"
        },
        {
          "name": "_buyerID",
          "type": "string"
        },
        {
          "name": "_shipperID",
          "type": "string"
        },
        {
          "name": "_shipmentStatus",
          "type": "uint256"
        },
        {
          "name": "_temperatureStatus",
          "type": "uint256"
        }
      ],
      "name": "createShipment",
      "outputs": [],
      "payable": false,
      "stateMutability": "nonpayable",
      "type": "function"
    },
    {
      "constant": false,
      "inputs": [
        {
          "name": "_shipmentID",
          "type": "string"
        },
        {
          "name": "_shipmentStatus",
          "type": "uint256"
        }
      ],
      "name": "updateShipment",
      "outputs": [],
      "payable": false,
      "stateMutability": "nonpayable",
      "type": "function"
    },
    {
      "constant": false,
      "inputs": [
        {
          "name": "_shipmentID",
          "type": "string"
        },
        {
          "name": "_temperatureStatus",
          "type": "uint256"
        }
      ],
      "name": "updateTemperatureStatus",
      "outputs": [],
      "payable": false,
      "stateMutability": "nonpayable",
      "type": "function"
    },
    {
      "constant": true,
      "inputs": [
        {
          "name": "_shipmentID",
          "type": "string"
        }
      ],
      "name": "getShipmentByID",
      "outputs": [
        {
          "name": "_sellerID",
          "type": "string"
        },
        {
          "name": "_buyerID",
          "type": "string"
        },
        {
          "name": "_shipperID",
          "type": "string"
        },
        {
          "name": "_shipmentStatus",
          "type": "uint256"
        },
        {
          "name": "_temperatureStatus",
          "type": "uint256"
        },
        {
          "name": "_temperatureBreached",
          "type": "bool"
        }
      ],
      "payable": false,
      "stateMutability": "view",
      "type": "function"
    }
  ],
  "bytecode": "0x60806040526000805534801561001457600080fd5b50611e03806100246000396000f300608060405260043610610062576000357c0100000000000000000000000000000000000000000000000000000000900463ffffffff1680631fbd3fcb146100675780633fd185061461023a5780637d9b337814610389578063fd99176d146103fc575b600080fd5b34801561007357600080fd5b506100ce600480360381019080803590602001908201803590602001908080601f016020809104026020016040519081016040528093929190818152602001838380828437820191505050505050919291929050505061046f565b604051808060200180602001806020018781526020018681526020018515151515815260200184810384528a818151815260200191508051906020019080838360005b8381101561012c578082015181840152602081019050610111565b50505050905090810190601f1680156101595780820380516001836020036101000a031916815260200191505b50848103835289818151815260200191508051906020019080838360005b83811015610192578082015181840152602081019050610177565b50505050905090810190601f1680156101bf5780820380516001836020036101000a031916815260200191505b50848103825288818151815260200191508051906020019080838360005b838110156101f85780820151818401526020810190506101dd565b50505050905090810190601f1680156102255780820380516001836020036101000a031916815260200191505b50995050505050505050505060405180910390f35b34801561024657600080fd5b50610387600480360381019080803590602001908201803590602001908080601f0160208091040260200160405190810160405280939291908181526020018383808284378201915050505050509192919290803590602001908201803590602001908080601f0160208091040260200160405190810160405280939291908181526020018383808284378201915050505050509192919290803590602001908201803590602001908080601f0160208091040260200160405190810160405280939291908181526020018383808284378201915050505050509192919290803590602001908201803590602001908080601f01602080910402602001604051908101604052809392919081815260200183838082843782019150505050505091929192908035906020019092919080359060200190929190505050610be1565b005b34801561039557600080fd5b506103fa600480360381019080803590602001908201803590602001908080601f016020809104026020016040519081016040528093929190818152602001838380828437820191505050505050919291929080359060200190929190505050611239565b005b34801561040857600080fd5b5061046d600480360381019080803590602001908201803590602001908080601f0160208091040260200160405190810160405280939291908181526020018383808284378201915050505050509192919290803590602001909291905050506118dc565b005b60608060606000806000806001886040518082805190602001908083835b6020831015156104b2578051825260208201915060208101905060208303925061048d565b6001836020036101000a03801982511681845116808217855250505050505090500191505090815260200160405180910390209050806001018054600181600116156101000203166002900480601f01602080910402602001604051908101604052809291908181526020018280546001816001161561010002031660029004801561057f5780601f106105545761010080835404028352916020019161057f565b820191906000526020600020905b81548152906001019060200180831161056257829003601f168201915b50505050509650806002018054600181600116156101000203166002900480601f01602080910402602001604051908101604052809291908181526020018280546001816001161561010002031660029004801561061e5780601f106105f35761010080835404028352916020019161061e565b820191906000526020600020905b81548152906001019060200180831161060157829003601f168201915b50505050509550806003018054600181600116156101000203166002900480601f0160208091040260200160405190810160405280929190818152602001828054600181600116156101000203166002900480156106bd5780601f10610692576101008083540402835291602001916106bd565b820191906000526020600020905b8154815290600101906020018083116106a057829003601f168201915b5050505050945080600401549350806005015492508060060160009054906101000a900460ff169150868686868686965096509650965096509650610bd7565b60208310151561072257805182526020820191506020810190506020830392506106fd565b6001836020036101000a03801982511681845116808217855250505050505090500191505060405180910390207f8c47f9dec6c1063f91b98aca5c8f853d1bca2fa0c4060bba58b19b3f7504642b60018a6040518082805190602001908083835b6020831015156107a85780518252602082019150602081019050602083039250610783565b6001836020036101000a038019825116818451168082178552505050505050905001915050908152602001604051809103902060010160018b6040518082805190602001908083835b60208310151561081657805182526020820191506020810190506020830392506107f1565b6001836020036101000a038019825116818451168082178552505050505050905001915050908152602001604051809103902060020160018c6040518082805190602001908083835b602083101515610884578051825260208201915060208101905060208303925061085f565b6001836020036101000a038019825116818451168082178552505050505050905001915050908152602001604051809103902060030160018d6040518082805190602001908083835b6020831015156108f257805182526020820191506020810190506020830392506108cd565b6001836020036101000a03801982511681845116808217855250505050505090500191505090815260200160405180910390206004015460018e6040518082805190602001908083835b602083101515610961578051825260208201915060208101905060208303925061093c565b6001836020036101000a03801982511681845116808217855250505050505090500191505090815260200160405180910390206005015460018f6040518082805190602001908083835b6020831015156109d057805182526020820191506020810190506020830392506109ab565b6001836020036101000a038019825116818451168082178552505050505050905001915050908152602001604051809103902060060160009054906101000a900460ff16604051808060200180602001806020018781526020018681526020018515151515815260200184810384528a818154600181600116156101000203166002900481526020019150805460018160011615610100020316600290048015610abb5780601f10610a9057610100808354040283529160200191610abb565b820191906000526020600020905b815481529060010190602001808311610a9e57829003601f168201915b5050848103835289818154600181600116156101000203166002900481526020019150805460018160011615610100020316600290048015610b3e5780601f10610b1357610100808354040283529160200191610b3e565b820191906000526020600020905b815481529060010190602001808311610b2157829003601f168201915b5050848103825288818154600181600116156101000203166002900481526020019150805460018160011615610100020316600290048015610bc15780601f10610b9657610100808354040283529160200191610bc1565b820191906000526020600020905b815481529060010190602001808311610ba457829003601f168201915b5050995050505050505050505060405180910390a25b5091939550919395565b610be9611c6b565b600080815480929190600101919050555086816000018190525085816020018190525084816040018190525083816060018190525082816080018181525050818160a001818152505060008160c0019015159081151581525050806001886040518082805190602001908083835b602083101515610c7c5780518252602082019150602081019050602083039250610c57565b6001836020036101000a03801982511681845116808217855250505050505090500191505090815260200160405180910390206000820151816000019080519060200190610ccb929190611cab565b506020820151816001019080519060200190610ce8929190611cab565b506040820151816002019080519060200190610d05929190611cab565b506060820151816003019080519060200190610d22929190611cab565b506080820151816004015560a0820151816005015560c08201518160060160006101000a81548160ff0219169083151502179055509050506001876040518082805190602001908083835b602083101515610d925780518252602082019150602081019050602083039250610d6d565b6001836020036101000a03801982511681845116808217855250505050505090500191505090815260200160405180910390206000016040518082805460018160011615610100020316600290048015610e235780601f10610e01576101008083540402835291820191610e23565b820191906000526020600020905b815481529060010190602001808311610e0f575b505091505060405180910390207fbd8060d2d5a1a0ba1154947135a5852b0543966152d3d2e64cc25230f5baf8696001896040518082805190602001908083835b602083101515610e895780518252602082019150602081019050602083039250610e64565b6001836020036101000a038019825116818451168082178552505050505050905001915050908152602001604051809103902060010160018a6040518082805190602001908083835b602083101515610ef75780518252602082019150602081019050602083039250610ed2565b6001836020036101000a038019825116818451168082178552505050505050905001915050908152602001604051809103902060020160018b6040518082805190602001908083835b602083101515610f655780518252602082019150602081019050602083039250610f40565b6001836020036101000a038019825116818451168082178552505050505050905001915050908152602001604051809103902060030160018c6040518082805190602001908083835b602083101515610fd35780518252602082019150602081019050602083039250610fae565b6001836020036101000a03801982511681845116808217855250505050505090500191505090815260200160405180910390206004015460018d6040518082805190602001908083835b602083101515611042578051825260208201915060208101905060208303925061101d565b6001836020036101000a038019825116818451168082178552505050505050905001915050908152602001604051809103902060050154604051808060200180602001806020018681526020018581526020018481038452898181546001816001161561010002031660029004815260200191508054600181600116156101000203166002900480156111165780601f106110eb57610100808354040283529160200191611116565b820191906000526020600020905b8154815290600101906020018083116110f957829003601f168201915b50508481038352888181546001816001161561010002031660029004815260200191508054600181600116156101000203166002900480156111995780601f1061116e57610100808354040283529160200191611199565b820191906000526020600020905b81548152906001019060200180831161117c57829003601f168201915b505084810382528781815460018160011615610100020316600290048152602001915080546001816001161561010002031660029004801561121c5780601f106111f15761010080835404028352916020019161121c565b820191906000526020600020905b8154815290600101906020018083116111ff57829003601f168201915b50509850505050505050505060405180910390a250505050505050565b60006001836040518082805190602001908083835b602083101515611273578051825260208201915060208101905060208303925061124e565b6001836020036101000a03801982511681845116808217855250505050505090500191505090815260200160405180910390209050818160040181905550806001846040518082805190602001908083835b6020831015156112ea57805182526020820191506020810190506020830392506112c5565b6001836020036101000a038019825116818451168082178552505050505050905001915050908152602001604051809103902060008201816000019080546001816001161561010002031660029004611344929190611d2b565b506001820181600101908054600181600116156101000203166002900461136c929190611d2b565b5060028201816002019080546001816001161561010002031660029004611394929190611d2b565b50600382018160030190805460018160011615610100020316600290046113bc929190611d2b565b5060048201548160040155600582015481600501556006820160009054906101000a900460ff168160060160006101000a81548160ff0219169083151502179055509050506001836040518082805190602001908083835b6020831015156114395780518252602082019150602081019050602083039250611414565b6001836020036101000a038019825116818451168082178552505050505050905001915050908152602001604051809103902060000160405180828054600181600116156101000203166002900480156114ca5780601f106114a85761010080835404028352918201916114ca565b820191906000526020600020905b8154815290600101906020018083116114b6575b505091505060405180910390207f3d8796e06c8befb4c353f0bdba58f3e2ff79884fc72d160572d7cfcc98ba06436001856040518082805190602001908083835b602083101515611530578051825260208201915060208101905060208303925061150b565b6001836020036101000a03801982511681845116808217855250505050505090500191505090815260200160405180910390206001016001866040518082805190602001908083835b60208310151561159e5780518252602082019150602081019050602083039250611579565b6001836020036101000a03801982511681845116808217855250505050505090500191505090815260200160405180910390206002016001876040518082805190602001908083835b60208310151561160c57805182526020820191506020810190506020830392506115e7565b6001836020036101000a03801982511681845116808217855250505050505090500191505090815260200160405180910390206003016001886040518082805190602001908083835b60208310151561167a5780518252602082019150602081019050602083039250611655565b6001836020036101000a0380198251168184511680821785525050505050509050019150509081526020016040518091039020600401546001896040518082805190602001908083835b6020831015156116e957805182526020820191506020810190506020830392506116c4565b6001836020036101000a038019825116818451168082178552505050505050905001915050908152602001604051809103902060050154604051808060200180602001806020018681526020018581526020018481038452898181546001816001161561010002031660029004815260200191508054600181600116156101000203166002900480156117bd5780601f10611792576101008083540402835291602001916117bd565b820191906000526020600020905b8154815290600101906020018083116117a057829003601f168201915b50508481038352888181546001816001161561010002031660029004815260200191508054600181600116156101000203166002900480156118405780601f1061181557610100808354040283529160200191611840565b820191906000526020600020905b81548152906001019060200180831161182357829003601f168201915b50508481038252878181546001816001161561010002031660029004815260200191508054600181600116156101000203166002900480156118c35780601f10611898576101008083540402835291602001916118c3565b820191906000526020600020905b8154815290600101906020018083116118a657829003601f168201915b50509850505050505050505060405180910390a2505050565b60006001836040518082805190602001908083835b60208310151561191657805182526020820191506020810190506020830392506118f1565b6001836020036101000a038019825116818451168082178552505050505050905001915050908152602001604051809103902090508181600501819055506001821415611a4a5760018160060160006101000a81548160ff021916908315150217905550826040518082805190602001908083835b6020831015156119b0578051825260208201915060208101905060208303925061198b565b6001836020036101000a03801982511681845116808217855250505050505090500191505060405180910390207f8525a6c4e888a96db11347f455333b1e8481a0052f42b0211e23ff76b17875ff6040518080602001828103825260148152602001807f74656d706572617475726520427265616368656400000000000000000000000081525060200191505060405180910390a2611b16565b826040518082805190602001908083835b602083101515611a805780518252602082019150602081019050602083039250611a5b565b6001836020036101000a03801982511681845116808217855250505050505090500191505060405180910390207f8525a6c4e888a96db11347f455333b1e8481a0052f42b0211e23ff76b17875ff6040518080602001828103825260148152602001807f74656d706572617475726520696e2072616e676500000000000000000000000081525060200191505060405180910390a25b806001846040518082805190602001908083835b602083101515611b4f5780518252602082019150602081019050602083039250611b2a565b6001836020036101000a038019825116818451168082178552505050505050905001915050908152602001604051809103902060008201816000019080546001816001161561010002031660029004611ba9929190611d2b565b5060018201816001019080546001816001161561010002031660029004611bd1929190611d2b565b5060028201816002019080546001816001161561010002031660029004611bf9929190611d2b565b5060038201816003019080546001816001161561010002031660029004611c21929190611d2b565b5060048201548160040155600582015481600501556006820160009054906101000a900460ff168160060160006101000a81548160ff021916908315150217905550905050505050565b60e0604051908101604052806060815260200160608152602001606081526020016060815260200160008152602001600081526020016000151581525090565b828054600181600116156101000203166002900490600052602060002090601f016020900481019282601f10611cec57805160ff1916838001178555611d1a565b82800160010185558215611d1a579182015b82811115611d19578251825591602001919060010190611cfe565b5b509050611d279190611db2565b5090565b828054600181600116156101000203166002900490600052602060002090601f016020900481019282601f10611d645780548555611da1565b82800160010185558215611da157600052602060002091601f016020900482015b82811115611da0578254825591600101919060010190611d85565b5b509050611dae9190611db2565b5090565b611dd491905b80821115611dd0576000816000905550600101611db8565b5090565b905600a165627a7a72305820403ababfde79b98738f44e2a4587bef04c54fab9f06ce9220c35c952d4d777230029",
  "source": "pragma solidity ^0.4.20;\n\ncontract Logistics {\n\n    //here goes he variables\n    uint256 shipmentCount=0;\n\n\n    //here goes the shipment structure\n    struct Shipment {\n        string shipmentID;\n        string sellerID;\n        string buyerID;\n        string shipperID;\n        uint shipmentStatus;\n        uint temperatureStatus;\n        bool temperatureBreached;\n\n    }\n\n    // here goes the mappings\n    mapping(string => Shipment) private ShipmentList;\n\n    //here goes all the events happining\n    event createShipmentevent(\n           string indexed shipmentID,\n            string sellerID,\n            string buyerID,\n            string shipperID,\n            uint shipmentStatus,\n            uint temperatureStatus\n    );\n\n    event shipmentUpdateEvent(\n            string indexed shipmentID,\n            string sellerID,\n            string buyerID,\n            string shipperID,\n            uint shipmentStatus,\n            uint temperatureStatus\n    );\n\n    event temperatureBreachedEvent(\n            string indexed shipmentID,\n            string breachedTxt\n    );\n\n    event getShipmentEvent(\n            string indexed shipmentID,\n            string sellerID,\n            string buyerID,\n            string shipperID,\n            uint shipmentStatus,\n            uint temperatureStatus,\n            bool temperatureBreached\n    );\n\n\n    function createShipment(string _shipmentID, string _sellerID, string _buyerID, string _shipperID, uint _shipmentStatus, uint _temperatureStatus ) public\n    {\n        shipmentCount++;\n        Shipment memory shipment;\n        shipment.shipmentID = _shipmentID;\n        shipment.sellerID = _sellerID;\n        shipment.buyerID = _buyerID;\n        shipment.shipperID = _shipperID;\n        shipment.shipmentStatus = _shipmentStatus;\n        shipment.temperatureStatus = _temperatureStatus;\n        shipment.temperatureBreached = false;\n        \n        ShipmentList[_shipmentID] = shipment;\n\n       // emitShipmentEvents(shipmentId);\n        emit createShipmentevent(ShipmentList[_shipmentID].shipmentID, ShipmentList[_shipmentID].sellerID, ShipmentList[_shipmentID].buyerID, ShipmentList[_shipmentID].shipperID, ShipmentList[_shipmentID].shipmentStatus, ShipmentList[_shipmentID].temperatureStatus);\n\n    }\n\n    function updateShipment(string _shipmentID, uint _shipmentStatus) public\n    {\n        Shipment storage shipment = ShipmentList[_shipmentID];\n        shipment.shipmentStatus = _shipmentStatus;\n        ShipmentList[_shipmentID] = shipment;\n        emit shipmentUpdateEvent(ShipmentList[_shipmentID].shipmentID, ShipmentList[_shipmentID].sellerID, ShipmentList[_shipmentID].buyerID, ShipmentList[_shipmentID].shipperID, ShipmentList[_shipmentID].shipmentStatus, ShipmentList[_shipmentID].temperatureStatus);\n    }\n\n\n    function updateTemperatureStatus(string _shipmentID, uint _temperatureStatus) public\n    {\n        Shipment storage shipment = ShipmentList[_shipmentID];\n        shipment.temperatureStatus = _temperatureStatus;\n        if(_temperatureStatus == 1 )\n        {\n            shipment.temperatureBreached = true;\n\n            emit temperatureBreachedEvent(_shipmentID, \"temperature Breached\");\n        }\n        else\n        {\n            emit temperatureBreachedEvent(_shipmentID, \"temperature in range\");\n\n        }\n        \n        ShipmentList[_shipmentID] = shipment;\n        \n\n    }\n\n\n    function getShipmentByID(string _shipmentID) public view returns(string _sellerID, string _buyerID, string _shipperID, uint _shipmentStatus, uint _temperatureStatus, bool _temperatureBreached)\n    {\n        Shipment storage shipment = ShipmentList[_shipmentID];\n\n        _sellerID=shipment.sellerID;\n        _buyerID=shipment.buyerID;\n        _shipperID=shipment.shipperID;\n        _shipmentStatus=shipment.shipmentStatus;\n        _temperatureStatus= shipment.temperatureStatus;\n        _temperatureBreached=shipment.temperatureBreached;\n\n        return (_sellerID, _buyerID, _shipperID, _shipmentStatus, _temperatureStatus, _temperatureBreached);\n        emit getShipmentEvent(_shipmentID, ShipmentList[_shipmentID].sellerID, ShipmentList[_shipmentID].buyerID, ShipmentList[_shipmentID].shipperID, ShipmentList[_shipmentID].shipmentStatus, ShipmentList[_shipmentID].temperatureStatus, ShipmentList[_shipmentID].temperatureBreached);\n    }\n\n\n\n}\n",
  "sourcePath": "/home/shaan/BIOfficial/ethDeploy/contracts/Logistics.sol",
  "compiler": {
    "name": "solc",
    "version": "0.4.24+commit.e67f0147.Emscripten.clang"
  },
  "schemaVersion": "2.0.0",
  "updatedAt": "2018-10-28T16:53:57.553Z"
}