{
  "contractName": "MyContract",
  "abi": [
    {
      "constant": false,
      "inputs": [
        {
          "name": "_name",
          "type": "string"
        }
      ],
      "name": "addName",
      "outputs": [
        {
          "name": "success",
          "type": "bool"
        }
      ],
      "payable": false,
      "stateMutability": "nonpayable",
      "type": "function"
    },
    {
      "constant": false,
      "inputs": [],
      "name": "getName",
      "outputs": [
        {
          "name": "",
          "type": "string"
        }
      ],
      "payable": false,
      "stateMutability": "nonpayable",
      "type": "function"
    }
  ],
  "bytecode": "0x608060405234801561001057600080fd5b506102c5806100206000396000f30060806040526004361061004c576000357c0100000000000000000000000000000000000000000000000000000000900463ffffffff16806311456b471461005157806317d7de7c146100a4575b600080fd5b34801561005d57600080fd5b5061008a600480360381019080803590602001908201803590602001919091929391929390505050610134565b604051808215151515815260200191505060405180910390f35b3480156100b057600080fd5b506100b9610152565b6040518080602001828103825283818151815260200191508051906020019080838360005b838110156100f95780820151818401526020810190506100de565b50505050905090810190601f1680156101265780820380516001836020036101000a031916815260200191505b509250505060405180910390f35b60008282600091906101479291906101f4565b506001905092915050565b606060008054600181600116156101000203166002900480601f0160208091040260200160405190810160405280929190818152602001828054600181600116156101000203166002900480156101ea5780601f106101bf576101008083540402835291602001916101ea565b820191906000526020600020905b8154815290600101906020018083116101cd57829003601f168201915b5050505050905090565b828054600181600116156101000203166002900490600052602060002090601f016020900481019282601f1061023557803560ff1916838001178555610263565b82800160010185558215610263579182015b82811115610262578235825591602001919060010190610247565b5b5090506102709190610274565b5090565b61029691905b8082111561029257600081600090555060010161027a565b5090565b905600a165627a7a723058205e5b109d016b343cb6a43e735edef6cda0b16e6814cd6bff6143de75dfb8072a0029",
  "source": "pragma solidity ^0.4.20;\ncontract MyContract {\n\tstring private name;\n\n\tfunction addName(string _name) external returns(bool success)\n\t{\n\t\tname = _name;\n\t\treturn true;\n\t}\n\tfunction getName() public returns(string)\n\t{\n\t\treturn name;\n\t}\n\n\t}\n",
  "sourcePath": "/home/shaan/ethDeploy/contracts/MyContract.sol",
  "compiler": {
    "name": "solc",
    "version": "0.4.24+commit.e67f0147.Emscripten.clang"
  },
  "schemaVersion": "2.0.0",
  "updatedAt": "2018-10-23T16:31:38.776Z"
}